:020000040800F2
:100000009810002001010008090100088F2700084E
:100010000D01000885090008C55200080000000015
:1000200000000000000000000000000013010008B4
:10003000150100080000000017010008273A000819
:100040001B0100081B0100081B0100081B01000820
:100050001B0100081B0100081B0100081B01000810
:100060001B0100081B0100081B0100081B01000800
:100070001B0100081B0100081B0100081B010008F0
:100080001B0100081B0100081B0100081B010008E0
:10009000415200081B0100081B0100081B01000859
:1000A0001B0100081B0100081B0100081B010008C0
:1000B0001B0100081B0100081B0100081B010008B0
:1000C0001B0100081B0100081B0100081B010008A0
:1000D0001B0100081B0100081B0100081B01000890
:1000E0001B0100081B0100081B010008DFF80CD0F1
:1000F00000F026FC00480047B9570008981000207F
:100100000648804706480047FEE7FEE7FEE7FEE7B1
:10011000FEE7FEE7FEE7FEE7FEE7FEE7253B000819
:10012000ED0000082DE9F05F93460E4604464FF0BF
:10013000000A8D0817D000BF54F8041B504654F82D
:10014000049B54F8048B54F8047B00F073F8494680
:1001500000F070F8414600F06DF8394600F06AF89A
:1001600082466D1EE8D116F003051BD0B5F1004F95
:1001700023D2002D16DD241F15F0010F05D054F8F1
:10018000041F504600F056F882466D080AD05046CB
:10019000616800F04FF854F8081F00F04BF88246F1
:1001A0006D1EF4D1304600F0B5FA0146504600F01D
:1001B000CBF8CBF80000BDE8F09F5046216800F076
:1001C00039F8241D82466D1EF7D1EBE7202A04DBA7
:1001D000203A21FA02F00021704721FA02F3D040C0
:1001E000C2F12002914008431946704740EA0103DA
:1001F0009B0703D009E008C9121F08C0042AFAD2DD
:1002000003E011F8013B00F8013B521EF9D27047A0
:10021000D2B201E000F8012B491EFBD27047002248
:10022000F6E710B513460A4604461946FFF7F0FFF5
:10023000204610BDF0B480EA0102D40F4200B2EBB8
:10024000410F02D20246084611464A0042D0C30D71
:10025000DDB2C1F3C752AD1A202D35DAC1F3160154
:1002600041F4000204B15242C5F1200602FA06F13F
:100270002A411044B3EBD05F23D0C4B1012DA0EBD1
:10028000C35009DCF0BC4FF0004202EAC352DBB2BB
:1002900000F5000000F0C9BA400000F1807000EBEA
:1002A000C350A0F1807040EAD170490009E04908CC
:1002B00041EAC071A0EBC35000F50000400800EB1C
:1002C000C350F0BC00F0A8BA6142012202EB410128
:1002D000001BF6E7F0BC704781F00041AAE780F010
:1002E0000040A7E780EA010210B502F00043400099
:1002F00022D04A001FD0010E01EB1261C0F356005C
:10030000C2F3560240F4000042F40002A0FB0220B7
:1003100000047F39140400D0401C50EA124001D47C
:100320004000491EC2B20C0604EBD010401C40082D
:10033000802A02D003E0002010BD20F00100002937
:1003400000DA0020184310BD30B480EA010202F048
:10035000004530F0004221F0004013D090B1C30DB1
:10036000D40DC2F31601C0F31600E41A41F40001E3
:1003700040F400027D34914201D3641C00E0490046
:10038000002C02DA30BC002070474FF4000000233C
:10039000914201D3891A034340084FEA4101F7D142
:1003A00051B1914202D14FF0004105E002D24FF02D
:1003B000010101E06FF0010103EBC450284430BC9F
:1003C00000F02ABA2DE9FE4F804681EA0300C00FF3
:1003D0000C46009021F0004123F00045B8EB0200EC
:1003E000A94105D24046214690461C460B4602468E
:1003F00023F00040104347D0270DC7F30A00C3F392
:100400000A510290401A019040286BDAC3F313009E
:1004100040F4801B0098924620B10023D2EB030ADF
:1004200063EB0B0B01985946C0F14002504600F0B7
:10043000D2F906460D4650465946019A00F0DAF9BF
:1004400010EB08006141002487EA115284EAE77347
:100450001A4340D0009A62B3019A012A4FEA075228
:1004600015DC001B61EB02014FF0004202EA07526B
:10047000CDE90042001C41F5801132462B4600F0C8
:1004800011FA03B0BDE8F08F40462146F9E7001BA2
:1004900061EB0201001C41F5801300185B4120183C
:1004A000A2F5001747EB030140EAD570B6196D417C
:1004B00011E06D084FEA360645EAC0754FEA07526B
:1004C000001B61EB0201001C41F5801149084FEA55
:1004D00030000019514132462B4603B0BDE8F04FC1
:1004E00000F0D1B90098012240000023D0EB0202B5
:1004F00063EBE073009821464FEAE074B8EB00002C
:1005000061EB0401E9E783F000435BE781F0004120
:1005100058E72DE9FE4F81EA030404F0004421F07E
:10052000004100944FF0000B23F0004350EA010417
:100530005ED052EA03045BD0C3F30A54C1F30A55F8
:100540002C44A4F2F3340194A0FB0254C1F3130130
:1005500041F48011C3F3130343F4801301FB0244FD
:1005600000FB034E840A970A44EA815447EA835702
:10057000A4FB076802958D0A05FB07854FEA932CBB
:1005800004FB0C542705029D4FEA065847EA16372C
:10059000B5EB08056EEB070C870E920E47EA811744
:1005A00042EA8312A7FB0201B6EB0B0164EB0004E5
:1005B0002B0D43EA0C335E1844EB1C50DA465146CF
:1005C000E7FB0201C5F313044FEA0B3343EA14536C
:1005D0004FEA0432019C43EA0603A4F10C0402949E
:1005E000009CCDE900B400F05DF903B0BDE8F08FE8
:1005F00000200146F9E72DE9F04D81EA030404F0FB
:10060000004B21F0004514464FF0000A23F0004152
:1006100050EA050220D054EA01021DD0C5F30A5762
:100620000246C5F31303C1F31300C1F30A5640F4A5
:10063000801543F48013A7EB0608101BD64608F27A
:10064000FD3873EB050002D308F1010801E09218B0
:100650005B41B8F1000F03DA00200146BDE8F08DE0
:1006600000204FF48011064684460EE0171B73EB02
:10067000050705D3121B63EB050306434CEA010C87
:1006800049084FEA300092185B4150EA0107EDD16A
:1006900052EA030012D082EA040083EA050108430B
:1006A00005D0101BAB4106D20122002306E0002238
:1006B0004FF0004302E06FF0010253101AEB060006
:1006C0004CEB085110EB0A0041EB0B01BDE8F04D7B
:1006D00000F0D9B870B521F0004303430CD0C1F34A
:1006E0000A550024D5EB040564EB0403D617AD1AB4
:1006F000B34102DB0020014670BD201841EB0251DE
:1007000070BDC10F80EAE0700844CA07962300213B
:1007100000F08BB896230022114600F086B800F056
:10072000004220F00040C10DC0F3160040F400006C
:100730007F2901DA00207047962903DCC1F1960178
:10074000C84001E096398840002AF4D04042704702
:1007500020F00040C10DC0F3160040F400007F29D6
:1007600001DA00207047962903DCC1F19601C840E8
:10077000704796398840704700F0004230F00040E2
:100780000AD0C10D01F56071C0F3160042EA0151B3
:10079000C20840071143704700200146704701F02E
:1007A000004330B421F0004150EA010206D00A0DA6
:1007B000A2F56072C1F31301002A02DC30BC0020F4
:1007C0007047440F44EAC104C100E01830BC00EB9C
:1007D000C25000F021B8202A04DB203A00FA02F1CE
:1007E000002070479140C2F1200320FA03F319431F
:1007F00090407047202A06DBCB17203A41FA02F0DE
:1008000043EAE07306E041FA02F3D040C2F120026D
:1008100091400843194670470029A8BF7047401C03
:10082000490008BF20F00100704710B4B0FA80FC06
:1008300000FA0CF050EA010404BF10BC704749B143
:10084000CCF1200421FA04F411FA0CF118BF0121B3
:1008500021430843A3EB0C01CB1D4FEA00614FEA93
:10086000102042BF002010BC704700EBC350104462
:100870000029A4BF10BC7047401C490008BF20F0ED
:10088000010010BC704710B5141E73F1000408DAA3
:10089000401C41F1000192185B411A4301D120F044
:1008A000010010BD2DE9F04D92469B4611B1B1FA01
:1008B00081F202E0B0FA80F220329046FFF78BFF1F
:1008C00004460F4640EA0A0041EA0B0153465A46E5
:1008D000084313D0114653EA010019D0C8F1400271
:1008E0005046FFF773FC05460E46504659464246B1
:1008F000FFF771FF084305D0012004E02046394688
:10090000BDE8F08D0020054346EAE0762C433743EE
:100910000A986305E40AA0EB08000022FD0A44EAF5
:1009200047540A3002D500200146E9E701051019B5
:100930006941DDE9084500196941BDE8F04DA2E7CC
:10094000064C074D06E0E06840F0010394E807001C
:1009500098471034AC42F6D3FFF7CCFB0C6C000880
:100960002C6C000810B5064801F0DAFD0C21044893
:1009700001F0F6FEBDE81040002004F0BDBF00000D
:100980008C05002001F003FF2DE9F04105460E46DD
:1009900017469846C5F34E00FFF7BCFE134C606047
:1009A0004FF47C6000EA871108F03F000843FFF72E
:1009B000A8FEA060C8F38910FFF7ACFEE060C7F3A3
:1009C0008910FFF7A7FE20614FF4806000EA8520C0
:1009D000C6F389110843FFF794FE606106F03F00FB
:1009E000FFF798FEA061BDE8F0810000580C0020E0
:1009F000064A0021D16106490A6942F002020A61F1
:100A00004861086940F0400008617047780C002098
:100A1000002002401049C86810F0100F0F4803D0A2
:100A2000C26942F00202C261CA6812F0040F03D028
:100A3000C26942F00102C261CA6912F0010F07D017
:100A4000C26942F00402C261C86920F00100C861B5
:100A50001420C8607047000000200240780C00207D
:100A600070B5044600F054F90646164DE86810F0DB
:100A7000010F0ED0B4F1FF3F07D024B100F048F9C8
:100A8000801BA04201D9032070BDE86810F0010F5F
:100A9000F0D1E86810F0200F01D02020E860E8686D
:100AA00010F0100F07D1E86810F0040F03D1E869C7
:100AB00010F0010F03D0FFF7ADFF012070BD002043
:100AC00070BD00000020024031B500F021F904465D
:100AD00000F01EF90099001B8842F9D338BD0000D0
:100AE0000348016941F08001016100207047000066
:100AF000002002400648016911F0800F05D0054929
:100B000041600549416000207047012070470000A6
:100B10000020024023016745AB89EFCD2DE9F84F56
:100B200000239C46DFF8CC810F2708F1040909F166
:100B3000040A0AF1040B012202FA0CF60A68324098
:100B4000B2427DD1DFF8B0E14C68A4EB0E057445EC
:100B50002BD00DDC032C34D005DC34B3012C19D0A0
:100B6000022C2FD11BE0112C16D0122C2AD119E007
:100B7000B5F5881F19D006DCB5F5803F15D0B5F561
:100B8000801F1FD111E0B5F5001F0ED0B5F5041F71
:100B900018D10AE0CB6815E0CB681B1D12E0CB68CA
:100BA00008330FE0CB680C330CE08B6823B1012BCA
:100BB00004D00823466105E0042303E0082306610E
:100BC00000E00023B2F5807F01D2054601E000F18C
:100BD000040502D24FEA8C0403E0ACF108044FEAAA
:100BE00084042E6807FA04FE26EA0E0603FA04F4CB
:100BF00046EA04042C604C6814F0805F72D03F4CCD
:100C0000A56945F00105A561A46904F001040094FB
:100C10002CF0030404F1804404F58034A6684FEA04
:100C20008C754FEA157507FA05FE26EA0E0EA0F13F
:100C30008046B6F584361AD0B6F5806619D000E045
:100C400050E0B6F5806616D0B6F5806615D004265D
:100C500006FA05F545EA0E05A5604C6814F4803FD8
:100C60000DD0D8F800401443C8F800400CE000262E
:100C7000EEE70126ECE70226EAE70326E8E7D8F8E4
:100C800000409443C8F800404C6814F4003F05D07D
:100C9000D9F800401443C9F8004004E0D9F80040F6
:100CA0009443C9F800404C6814F4801F05D0DAF86A
:100CB00000401443CAF8004004E0DAF800409443CE
:100CC000CAF800404C6814F4001F05D0DBF800405F
:100CD0002243CBF8002005E0DBF8004024EA0202C2
:100CE000CBF800200CF1010CBCF1100FFFF423AF86
:100CF000BDE8F88F00040140000011100010024010
:100D00008068084201D00120704700207047000031
:100D100001480068704700001401002010B5044627
:100D2000002C0AD02068C16811F0010F07D0C068FC
:100D300010F0020F03D0012010BD012010BD607B18
:100D400020B900202073204600F018F802206073BC
:100D5000216845F25550086020684168626821F0BA
:100D600007011143416020688168A2686FF30B019D
:100D70001143816001206073002010BD70470000A6
:100D800002480168491C01607047000014010020FE
:100D900010B50748016841F010010160032000F020
:100DA00085F8002000F006F800F016F8002010BDCD
:100DB0000020024010B5044600F0D2FD4FF47A72D4
:100DC000B0FBF2F001F00EFB00222146501E00F0B5
:100DD00039F8002010BD000008B50C48816941F0C9
:100DE00001018161806900F001000090032000F0A2
:100DF0005DF800221146501E00F024F804484168B6
:100E000021F0E06141F00071416008BD0010024036
:100E10000000014000F01F01012202FA01F1400927
:100E2000800000F1E020C0F88011704700F01F0141
:100E3000012202FA01F14009800000F1E020C0F82F
:100E40000011704710B4184B1B68C3F30223C3F1A1
:100E5000070CBCF1040F01D94FF0040C1C1D072C2A
:100E600001D2002300E0DB1E012404FA0CFCACF1EB
:100E7000010C0CEA0101994004FA03F35B1E1A40CD
:100E80001143002808DA00F00F0000F1E02009010A
:100E900080F8141D10BC704700F1E020090180F8B3
:100EA000001410BC704700000CED00E000F00700DB
:100EB000064A11684FF6FF03194041EA002040F04E
:100EC000FD7040F080601060704700000CED00E0A5
:100ED000BFF34F8F05480168054A01F4E0611143F3
:100EE0000160BFF34F8F00BFFDE700000CED00E095
:100EF0000400FA0511F0800F05D001F07F0100EB2E
:100F00004110283003E000EB411000F5027099B267
:100F100032B101228272C180190C01810020704718
:100F2000002282728180F9E7704700EB4112D0F80D
:100F30001C04D26B03F058B900EB4112D0F81C042A
:100F4000D2F81C2203F0ADB910B50446002C0CD029
:100F5000032084F8E903204600F083FA204600F0DD
:100F600007FA002084F8E90310BD012010BD10B578
:100F70000446084600F07F0210F0800F04EB421197
:100F800001D0283101E001F502710A70C0F3C010F0
:100F9000487094F8E803012809D0012084F8E80398
:100FA000206803F0D9FE002084F8E80310BD022079
:100FB00010BD70B50446084610F0800F00F07F02A7
:100FC00003D004EB4211283103E004EB401101F59A
:100FD000027100258D700A70C0F3C010487094F83B
:100FE000E803012809D0012084F8E803206803F011
:100FF0008FFF84F8E853002070BD022070BD10B54B
:10100000044694F8E80301280BD0012084F8E80393
:1010100011F0800F07D001F07F01206804F00DF976
:1010200004E0022010BD206804F005F9002084F8D7
:10103000E80310BD01F07F0100EB4110B0F824027D
:1010400080B2704770B50446084600F07F0C10F07F
:10105000800F04EB4C1101D0283101E001F5027141
:1010600081F800C0C0F3C01048700A61CB7094F8DA
:10107000E803012809D0012084F8E803206803F080
:10108000EFFC002084F8E80370BD022070BD70B54D
:1010900004468C460CF07F0004EB401101F5027110
:1010A0004A618B610025CD614D70087094F8E803AA
:1010B00001280CD0012084F8E8031CF07F0F08D031
:1010C000206803F09CFF84F8E853002070BD0220E4
:1010D00070BD206803F093FFF5E770B504460D4638
:1010E00015F0800F05F07F0003D004EB401128318C
:1010F00003E004EB451101F5027101228A700870CA
:10110000C5F3C010487094F8E803012808D084F8AB
:10111000E823206803F047FF15F07F0F02D006E0B8
:10112000022070BD04F57B71206803F0EFFE002003
:1011300084F8E80370BD70B504468C460CF07F005F
:1011400004EB401128314A618B610025CD610122F9
:101150004A70087094F8E80301280BD084F8E8235B
:101160001CF07F0F08D0206803F049FF84F8E85393
:10117000002070BD022070BD206803F040FFF5E73D
:1011800010B50446206804F061F810F4004F02D056
:10119000204601F0ABFE206804F058F810F4806F90
:1011A0000DD02068B0F8441021F48061A0F84410FC
:1011B000204600F00DF90021204600F01EF92068BD
:1011C00004F044F810F4804F06D02068B0F84410C2
:1011D00021F48041A0F84410206804F037F810F49E
:1011E000005F06D02068B0F8441021F40051A0F848
:1011F0004410206804F02AF810F4805F15D02068AD
:10120000B0F8401021F00401A0F8401021684FF41C
:101210003D40A1F84000204600F0E7F82068B0F813
:10122000441021F48051A0F84410206804F00EF816
:1012300010F4006F1DD02068B0F8441021F4006154
:10124000A0F844102068B0F8401041F00801A0F860
:1012500040102068B0F8401041F00401A0F84010A0
:10126000206803F0F3FF10F4805F02D1204600F005
:1012700011F9206803F0EAFF10F4007F09D020681C
:10128000B0F8441021F40071A0F84410204600F09A
:10129000B0F8206803F0DAFF10F4807F06D02068F1
:1012A000B0F8441021F48071A0F8441010BDF0B5DE
:1012B00085B004460025002C04D094F8E9030026EC
:1012C00018B107E005B00120F0BD84F8E8632046BE
:1012D00000F060F8032084F8E903206803F00EFEB4
:1012E00004F110000FC88DE80F00206A049094E804
:1012F0000F0003F02FFD0021206803F0BAFF012743
:1013000004EB451080F8297080F82850858680F815
:101310002B608663C66306646D1C0F2DF0D300211D
:1013200004EB411080F8096280F80812818680F889
:101330000B62C0F81862C0F81C62C0F82062491C39
:101340000F29EDD304F110000FC88DE80F00206ABB
:10135000049094E80F0003F0C5FD84F8246084F83D
:10136000E973206803F0BCFD05B00020F0BD00006B
:101370000068A0F18041B1F5B84107D10448C169C6
:1013800021F40001C1611420FFF744BD7047000043
:101390000010024008B50068A0F18041B1F5B841E5
:1013A00012D10A48C16941F40001C161C06900F469
:1013B00000000090002211461420FFF743FDBDE815
:1013C00008401420FFF732BD08BD000000100240A5
:1013D00010B504460121D4F81C0403F037F8D4F802
:1013E0001C04BDE8104002F0FFBFD0F81C0403F05D
:1013F0001BB8D0F81C0403F01DB810B5044694F8CF
:10140000E80301280BD0012084F8E80384F82410B5
:10141000206803F030FF002084F8E80310BD0220AC
:1014200010BDD0F81C2400F57B71104603F018B8ED
:1014300010B5044694F8E803012810D0012084F880
:10144000E80301212046FFF76FFD206803F046FD09
:10145000206803F0E8FE002084F8E80310BD0220B5
:1014600010BD10B5044694F8E80301280FD0012000
:1014700084F8E803206803F041FD206803F002FFD0
:10148000206803F02DFD002084F8E80310BD022041
:1014900010BD000010B50446D4F81C0403F024F875
:1014A000A069002804D00348016841F006010160EA
:1014B00010BD000010ED00E02DE9F84304465E4E3B
:1014C000207810F0010F78D0F06940F08050F06182
:1014D000F06900F080500090584D286840F480700A
:1014E0002860FFF715FC0746286810F4807F0BD1B1
:1014F000FFF70EFCC01B642802D90320BDE8F88367
:10150000286810F4807FF3D0306AA18800F440701E
:1015100001F44071884278D0306A20F440704FF472
:10152000803191FAA1F2B2FA82F2920002F1844281
:1015300002F584024FF00108C2F8008491FAA1F18B
:101540000022B1FA81F1890001F1844101F58401A1
:10155000C1F80024306210F0020F50D0FFF7D8FB22
:101560000746022595FAA5F0B0FA80F040F0400059
:10157000B8EB501F01D130680BE095FAA5F0B0FA36
:1015800080F040F04000B5EB501F01D1306A00E020
:10159000706A95FAA5F1B1FA81F101F01F0108FA1C
:1015A00001F108422BD141F28839FFF7B1FBC01B92
:1015B000484503D90320BDE8F88326E095FAA5F055
:1015C000B0FA80F040F04000B8EB501F01D1316814
:1015D0000BE095FAA5F0B0FA80F040F04000B5EBD2
:1015E000501F01D1316A00E0716A95FAA5F0B0FA96
:1015F00080F000F01F0008FA00F00142D5D0306AF8
:10160000616820F4407008433062207810F0020FC7
:1016100005D07068A16820F44040084370602078CD
:1016200010F0100F05D07068E16820F480000843C6
:1016300070600020BDE8F883001002400070004098
:101640002DE9F04704460F46DFF80C93D9F8000067
:10165000012200F0070053040226C04D4FF0007C29
:1016600041F28838B8427DD2D9F8000020F0070056
:101670003843C9F80000D9F8000000F00700B8426C
:1016800002D00120BDE8F087207810F0020F05D0CD
:101690006868A16820F0F00008436860207810F0C6
:1016A000010F00F03D81606801280BD0022820D096
:1016B00096FAA6F1B1FA81F141F0200149092FD043
:1016C00029682EE093FAA3F1B1FA81F141F02001EB
:1016D000490901D0296800E0696A93FAA3F3B3FAD3
:1016E00083F303F01F039A40114226D10120BDE885
:1016F000F0879CFAACF1B1FA81F141F0200149097F
:1017000001D0296800E0696A9CFAACF3B3FA83F36C
:1017100003F01F039A4011420FD10120BDE8F0876A
:10172000696A96FAA6F3B3FA83F303F01F039A40AB
:10173000114202D10120BDE8F087696821F0030160
:1017400008436860FFF7E4FA0646606801280FD096
:10175000022820D0686810F00C0F72D0FFF7D8FA7A
:10176000801B00E02FE0404528D90320BDE8F0872A
:10177000686800F00C00042863D0FFF7C9FA801BEA
:10178000404502D90320BDE8F087686800F00C00EE
:101790000428F2D1C4E0686800F00C00082850D09A
:1017A000FFF7B6FA801B404502D90320BDE8F08759
:1017B000686800F00C000828F2D1B1E0686810F009
:1017C0000C0FCBD1ACE0207810F0020F05D0686888
:1017D000A16820F0F00008436860207810F0010F45
:1017E00070D0606801280BD0022820D096FAA6F1AC
:1017F000B1FA81F141F02001490930D029682FE088
:1018000093FAA3F1B1FA81F141F02001490901D025
:10181000296800E0696A93FAA3F3B3FA83F303F04B
:101820001F039A40114227D10120BDE8F0879CFA9E
:10183000ACF1B1FA81F141F02001490902D02968E7
:1018400001E06DE0696A9CFAACF3B3FA83F303F04C
:101850001F039A4011420FD10120BDE8F087696A49
:1018600096FAA6F3B3FA83F303F01F039A401142EA
:1018700002D10120BDE8F087696821F00301084327
:101880006860FFF745FA0646606801280DD0022817
:101890001FD0686810F00C0F32D0FFF739FA801BA8
:1018A000404529D90320BDE8F087686800F00C00A6
:1018B000042825D0FFF72CFA801B404503D90320CC
:1018C000BDE8F0871CE0686800F00C000428F1D146
:1018D00016E0686800F00C00082811D0FFF718FA2D
:1018E000801B404502D90320BDE8F087686800F0FE
:1018F0000C000828F2D103E0686810F00C0FCCD17E
:10190000D9F8000020F007003843C9F80000D9F8E2
:10191000000000F00700B84202D00120BDE8F087C7
:10192000207810F0040F05D06868E16820F4E060CA
:1019300008436860207810F0080F06D068682169B5
:1019400020F4605040EAC10068600020FFF732FADE
:101950000020BDE8F0870000002002400010024097
:1019600010B500F017F808494968F02292FAA2F27F
:1019700001F0F001B2FA82F2D140044A515CC84051
:101980000349086010BD000000100240FC6B000815
:10199000A800002085B01DA0036882684168C06867
:1019A00001930392029104901CA0006800901C4BCC
:1019B00059681C4801F00C02042A21D0082A1FD1C2
:1019C0004FF4701C9CFAACFC01F47012BCFA8CFC55
:1019D00022FA0CF20DF1040C1CF8022011F4803FE5
:1019E00010D059684FF4003393FAA3F301F4003197
:1019F000B3FA83F3D9401DF80110B0FBF1F0504366
:101A000005B07047084805B050437047020304050D
:101A1000060708090A0B0C0D0E0F1010010200003A
:101A20000010024000127A0000093D002DE9F84F35
:101A30000446FA4D20784FF0010610F0010F00F037
:101A400000816868770400F00C00042808D06868FA
:101A500000F00C0008281ED1686810F4803F1AD0EE
:101A600097FAA7F0B0FA80F040F02000400901D0CA
:101A7000286800E0686A97FAA7F1B1FA81F101F0ED
:101A80001F0106FA01F1084270D0606800286DD18C
:101A90000120BDE8F88F286820F48030286028688D
:101AA00020F480202860FFF733F9804697FAA7F0EA
:101AB000B0FA80F040F02000400901D0286800E032
:101AC000686A97FAA7F1B1FA81F101F01F0106FAED
:101AD00001F108421DD0FFF71BF9A0EB08006428B4
:101AE00002D90320BDE8F88F97FAA7F0B0FA80F08A
:101AF00040F02000400901D0286800E0686A97FAA9
:101B0000A7F1B1FA81F101F01F0106FA01F10842D3
:101B1000E1D16068B0F5803F1AD0F0B1B0F5A02FE8
:101B200025D0286820F480302860286820F48020A0
:101B300028606068C0B3FFF7EBF8804697FAA7F01B
:101B4000B0FA80F040F02000400919D0286818E071
:101B5000286840F480302860EBE7286820F4803063
:101B60002860286820F480202860E2E769E028687F
:101B700040F480202860286840F480302860D8E74E
:101B8000686A97FAA7F1B1FA81F101F01F0106FA2C
:101B900001F1084255D1FFF7BBF8A0EB080064281B
:101BA00003D90320BDE8F88F15E097FAA7F0B0FA43
:101BB00080F040F02000400901D0286800E0686A09
:101BC00097FAA7F1B1FA81F101F01F0106FA01F1CC
:101BD0000842E0D035E0FFF79BF8804697FAA7F07F
:101BE000B0FA80F040F02000400901D0286800E001
:101BF000686A97FAA7F1B1FA81F101F01F0106FABC
:101C000001F108421DD0FFF783F8A0EB080064281B
:101C100002D90320BDE8F88F97FAA7F0B0FA80F058
:101C200040F02000400901D0286800E0686A97FA77
:101C3000A7F1B1FA81F101F01F0106FA01F10842A2
:101C4000E1D120784FF0000810F0020F4FF00207AA
:101C50004ED068684FF0F80A10F00C0F21D0686879
:101C600000F00C00082803D1686810F4803F18D0F9
:101C7000206988B396FAA6F0B0FA80F0800000F1EF
:101C8000844000F584000660FFF742F8814697FA29
:101C9000A7F0B0FA80F040F02000400929D0286871
:101CA00028E097FAA7F0B0FA80F040F02000400951
:101CB00001D0286800E0686A97FAA7F1B1FA81F1CB
:101CC00001F01F0106FA01F1084206D0206901283F
:101CD00003D00120BDE8F88F40E028689AFAAAF204
:101CE0006169B2FA82F220F0F8009140084328605E
:101CF00075E0686A97FAA7F1B1FA81F101F01F0166
:101D000006FA01F108421DD1FFF702F8A0EB090025
:101D1000642802D90320BDE8F88F97FAA7F0B0FA3B
:101D200080F040F02000400901D0286800E0686A97
:101D300097FAA7F1B1FA81F101F01F0106FA01F15A
:101D40000842E1D028689AFAAAF26169B2FA82F2EE
:101D500020F0F80091400843286040E096FAA6F091
:101D6000B0FA80F0800000F1844000F58400C0F8F3
:101D70000080FEF7CDFF814697FAA7F0B0FA80F019
:101D800040F02000400901D0286800E0686A97FA16
:101D9000A7F1B1FA81F101F01F0106FA01F1084241
:101DA0001DD0FEF7B5FFA0EB0900642802D903207F
:101DB000BDE8F88F97FAA7F0B0FA80F040F0200065
:101DC000400901D0286800E0686A97FAA7F1B1FAE3
:101DD00081F101F01F0106FA01F10842E1D12078FA
:101DE00010F0080F60D0A069C8B396FAA6F0B0FA58
:101DF00080F0800000F1844000F58400C0F8806429
:101E0000FEF786FF814697FAA7F0B0FA80F040F01F
:101E10006000B6EB501F03D128680DE000100240AF
:101E200097FAA7F0B0FA80F040F06000B7EB501FCF
:101E300001D1286A00E0686A97FAA7F1B1FA81F146
:101E400001F01F0106FA01F108422AD1FEF760FFF6
:101E5000A0EB0900642803D90320BDE8F88F24E033
:101E600097FAA7F0B0FA80F040F06000B6EB501F90
:101E700001D128680BE097FAA7F0B0FA80F040F0A3
:101E80006000B7EB501F01D1286A00E0686A97FA3A
:101E9000A7F1B1FA81F101F01F0106FA01F1084240
:101EA000D4D00120FEF710FE58E096FAA6F0B0FA62
:101EB00080F0800000F1844000F58400C0F8808448
:101EC000FEF726FF814697FAA7F0B0FA80F040F0BF
:101ED0006000B6EB501F01D128680BE097FAA7F01D
:101EE000B0FA80F040F06000B7EB501F01D1286AD3
:101EF00000E0686A97FAA7F1B1FA81F101F01F01D9
:101F000006FA01F1084229D0FEF702FFA0EB090012
:101F1000642802D90320BDE8F88F97FAA7F0B0FA39
:101F200080F040F06000B6EB501F01D128680BE054
:101F300097FAA7F0B0FA80F040F06000B7EB501FBE
:101F400001D1286A00E0686A97FAA7F1B1FA81F135
:101F500001F01F0106FA01F10842D5D1207810F0F6
:101F6000040F72D0E86940F08050E861E86900F041
:101F700080500090DFF848A4DAF8000040F4807048
:101F8000CAF80000FEF7C4FE8146DAF8000010F43B
:101F9000807F0DD1FEF7BCFEA0EB0900642802D9BA
:101FA0000320BDE8F88FDAF8000010F4807FF1D04C
:101FB000286A20F001002862286A20F004002862C4
:101FC000FEF7A6FE814697FAA7F0B0FA80F040F03F
:101FD0004000B6EB501F01D128680BE097FAA7F03C
:101FE000B0FA80F040F04000B7EB501F01D1286AF2
:101FF00000E0686A97FAA7F1B1FA81F101F01F01D8
:1020000006FA01F1084241F2883A2AD0FEF780FE32
:10201000A0EB0900504502D90320BDE8F88F97FADC
:10202000A7F0B0FA80F040F04000B6EB501F01D1AD
:1020300028680CE097FAA7F0B0FA80F040F0400072
:10204000B7EB501F02D1286A01E0CFE0686A97FA27
:10205000A7F1B1FA81F101F01F0106FA01F108427E
:10206000D4D1E06801281AD0F0B1052825D0286A1B
:1020700020F001002862286A20F004002862E0684D
:1020800078B3FEF745FE814697FAA7F0B0FA80F0E4
:1020900040F04000B6EB501F18D1286823E0286AB2
:1020A00040F001002862EAE7286A20F00100286277
:1020B000286A20F004002862E1E7286A40F0040062
:1020C0002862286A40F001002862D8E797FAA7F052
:1020D000B0FA80F040F04000B7EB501F02D1286A00
:1020E00001E035E0686A97FAA7F1B1FA81F101F0F1
:1020F0001F0106FA01F1084278D1FEF709FEA0EBB4
:102100000900504502D90320BDE8F88F97FAA7F0DF
:10211000B0FA80F040F04000B6EB501F01D12868C3
:102120000BE097FAA7F0B0FA80F040F04000B7EB70
:10213000501F01D1286A00E0686A97FAA7F1B1FA46
:1021400081F101F01F0106FA01F10842D5D04DE0FE
:10215000FEF7DEFD814697FAA7F0B0FA80F040F076
:102160004000B6EB501F01D128680BE097FAA7F0AA
:10217000B0FA80F040F04000B7EB501F01D1286A60
:1021800000E0686A97FAA7F1B1FA81F101F01F0146
:1021900006FA01F1084229D0FEF7BAFDA0EB0900CA
:1021A000504502D90320BDE8F88F97FAA7F0B0FA9E
:1021B00080F040F04000B6EB501F01D128680BE0E2
:1021C00097FAA7F0B0FA80F040F04000B7EB501F4C
:1021D00001D1286A00E0686A97FAA7F1B1FA81F1A3
:1021E00001F01F0106FA01F10842D5D1E069D0B330
:1021F000696801F00C0108297ED04FF0807A4FF019
:102200000079022817D09AFAAAF0B0FA80F080007C
:1022100000F1844000F58400C0F80080FEF778FDEE
:10222000044699FAA9F0B0FA80F040F02000400985
:102230007ED0286897E09AFAAAF0B0FA80F0800081
:1022400000F1844000F58400C0F80080FEF760FDD6
:10225000074699FAA9F0B0FA80F040F02000400952
:1022600002D0286801E0A5E0686A99FAA9F1B1FAFC
:1022700081F101F01F0106FA01F108421CD0FEF7BE
:1022800047FDC01B642802D90320BDE8F88F99FAE6
:10229000A9F0B0FA80F040F02000400901D0286891
:1022A00000E0686A99FAA9F1B1FA81F101F01F0121
:1022B00006FA01F10842E2D1206AB0F5803F05D16B
:1022C0006868A16820F4003008436860616A206A89
:1022D0000843696821F47411084368609AFAAAF007
:1022E000B0FA80F0800000F1844000F584000660C0
:1022F000FEF70EFD044600E05FE099FAA9F0B0FA9F
:1023000080F040F02000400901D0286800E0686AB1
:1023100099FAA9F1B1FA81F101F01F0106FA01F170
:10232000084247D1FEF7F4FC001B642804D900E002
:1023300018E00320BDE8F88F99FAA9F0B0FA80F010
:1023400040F02000400901D0296800E0696A99FA4C
:10235000A9F0B0FA80F000F01F0006FA00F0014288
:10236000E0D027E0686A99FAA9F1B1FA81F101F0A9
:102370001F0106FA01F108421CD0FEF7C9FC001B40
:10238000642802D90320BDE8F88F99FAA9F0B0FAC1
:1023900080F040F02000400901D0296800E0696A1F
:1023A00099FAA9F0B0FA80F000F01F0006FA00F0E8
:1023B0000142E2D10020BDE8F88F0120BDE8F88F8E
:1023C000007000404FF0E021042804D0086920F09C
:1023D000040008617047086940F004000861704714
:1023E00070470000401EB0F1807F01D3012070478C
:1023F0004FF0E0214861044AF0201070002088610D
:10240000072008610020704723ED00E010B5FFF7BA
:10241000E7FF10BD10B490F83820012A2AD001231C
:1024200080F83830022280F839200268D2F804C0DF
:102430002CF0700CC2F804C00268D2F804C00C681A
:102440004CEA040CC2F804C00268D2F808C02CF0B0
:10245000800CC2F808C00268D2F808C049684CEA8B
:102460000101916080F83930002180F8381010BCEB
:102470000020704710BC0220704710B50446002CA5
:1024800003D094F8390010B107E0012010BD0020FE
:1024900084F83800204600F00DF8022084F8390056
:1024A000211D206801F062FB012084F83900002022
:1024B00010BD000000B587B0006816490222B0F1D7
:1024C000804F15D0A0F18043B3F580630ED1C86969
:1024D00040F00200C861C86900F002000190029259
:1024E0000392059202A90C48FEF718FB07B000BD45
:1024F000C86940F00100C861C86900F0010001909E
:10250000082002900392059202A90448FEF706FBF8
:1025100007B000BD00100240000C0140000801405F
:10252000022180F8391001680A6842F001020A604D
:10253000012180F839100020704770B5044694F8E6
:102540003800012818D0012584F83850022084F87A
:1025500039002068826822F0770222F47F4282608C
:10256000086850283AD00EDC20285FD006DC00280E
:1025700052D0102863D154E0022070BD30285AD0C8
:1025800040285CD13EE0602832D070280CD0B0F5F5
:10259000805F03D0B0F5005F51D113E020688168FF
:1025A00021F0070181604AE0CB684A6889682068A9
:1025B00001F01DFB2068816821F0770141F077016F
:1025C00081603CE0CB684A688968206801F00FFBB5
:1025D0002068816841F48041816030E0CA684968C0
:1025E000206801F0DAFB5021206801F00BFB26E0A7
:1025F000CA684968206801F0E3FB6021206801F0A7
:1026000001FB1CE0CA684968206801F0C6FB402154
:10261000206801F0F7FA12E00021206801F0F2FAD8
:102620000DE01021206801F0EDFA08E0202120687B
:1026300001F0E8FA03E03021206801F0E3FA84F8C1
:102640003950002084F8380070BD70B504460D463E
:1026500094F8380001280DD0012684F83860022053
:1026600084F8390042B1042A1AD0082A2DD00C2A45
:1026700053D13EE0022070BD2946206801F0CAFA1D
:102680002068816941F0080181612068816921F039
:1026900004018161206881692A69114381613CE0FC
:1026A0002946206801F0EAFA2068816941F4006156
:1026B00081612068816921F480618161206881697C
:1026C0002A6941EA0221816127E02946206801F058
:1026D00009FB2068C16941F00801C1612068C16936
:1026E00021F00401C1612068C1692A691143C161F7
:1026F00013E02946206801F029FB2068C16941F4F4
:102700000061C1612068C16921F48061C1612068F4
:10271000C1692A6941EA0221C16184F83960002057
:1027200084F8380070BD10B50446002C03D094F82E
:10273000390010B107E0012010BD002084F83800F6
:10274000204600F00CF8022084F83900211D206892
:1027500001F00CFA012084F83900002010BD704708
:1027600010B504460122206801F034FA2068A0F177
:102770008041B1F5963103D1416C41F4004141648F
:102780002068016841F001010160002010BD0420B3
:1027900003F0B2F830BFFDE72DE9F04F85B0814678
:1027A0008A4600F084F902F093FF054602F0A4FF88
:1027B00004462846FDF7A5FF01902046FDF7A1FF3E
:1027C0000646DFF87882D8F81400FDF7D5FF03221B
:1027D000FDF780FF00229A4BFDF7F4FD04460D46FD
:1027E0003046FDF7C9FF22462B46FDF78CFEFDF76C
:1027F000D6FF06463046FDF7BFFF834604460491E8
:102800000D46D8F81000FDF7B7FF00224FF08143C6
:10281000FDF779FE22462B46FDF77BFE6FF00B029B
:10282000FDF758FF04460D46D8F80800FDF7A4FF51
:102830000222FDF74FFF22462B46FDF7C3FDFDF7B1
:10284000AEFF07463146D8F80C00FDF74BFDFDF70B
:1028500093FF6FF00902FDF73DFF04460D46D8F8DF
:102860000400FDF789FF0022764BFDF7ABFD224601
:102870002B46FDF7A7FDFDF792FF02903846FDF7C6
:102880007BFF04460D460198FDF776FF00226E4B54
:10289000FDF739FE06460F460298FDF76DFF3246FA
:1028A0003B46FDF736FE6FF00D02FDF713FF2246A3
:1028B0002B46FDF728FEFDF772FF6449FDF712FD78
:1028C000FDF75AFF6FF00402FDF704FF0022604B92
:1028D000FDF778FDFDF763FF0090D8F8180003902E
:1028E000FDF74AFF00225B4BFDF76CFD02460B46ED
:1028F00058460499FDF70DFE6FF00902FDF7EAFE58
:102900000022554BFDF75EFDFDF749FF804600268E
:10291000B346524880453FDA4146FDF7DDFCFDF7FE
:102920002BFF04460D4606460F464D490398FDF71A
:1029300081FCFDF721FF00224A4BFDF7EAFD3246FC
:102940003B46FDF7E6FD22462B46FDF7E2FD6FF024
:102950000F02FDF7BFFE6FF00302FDF7BBFEFDF7B0
:102960001EFF064640490098FDF7B6FCFDF704FF40
:1029700004460D463046FDF7FFFE00223B4BFDF7B7
:10298000C8FD22462B46FDF7C4FD6FF00D02FDF792
:10299000A1FEFDF704FF83463548804525DD41460D
:1029A000FDF79AFCFDF7E8FE04460D4606460F4685
:1029B0002B490398FDF73EFCFDF7DEFE00222B4B72
:1029C000FDF7A7FD32463B46FDF7A3FD22462B4609
:1029D000FDF79FFD0022274BFDF70DFE6FF0030270
:1029E000FDF778FEFDF7DBFE064631464046FDF773
:1029F00073FC054659460098FDF76EFC1E4CBAF173
:102A0000000F09D0FDF7B8FE00222346FDF7F3FDC5
:102A1000FDF7C5FECAF80000B9F1000F0AD028463C
:102A2000FDF7AAFE00222346FDF7E5FDFDF7B7FE00
:102A3000C9F8000005B0BDE8F08F0000580C002078
:102A400000C0D3400000D8400000BC40000020413E
:102A50000088A3400000494000006940000048434E
:102A60000000C0410000264000C05A450000084058
:102A70000000E143600124410000244070B500F0F3
:102A800016F8042002F04CFE0446032002F048FE33
:102A90000546022002F044FE0646012002F040FEF8
:102AA00023462A463146BDE87040FDF76DBF00B5AC
:102AB0000821552000F098FF0821552000F094FFD0
:102AC000052100205DF804EB00F08EBF70B50546CF
:102AD000D5F8184294F81802002808D1D4F8140246
:102AE00028B1607A18B90121284601F0E8FC81215B
:102AF000284601F0E4FC607A022808D104F503724C
:102B00002846BDE870401F23012101F066BC70BD5E
:102B100070B50546D5F81842D4F81002C4F8300252
:102B2000D4F81402C4F834020121284601F000FC54
:102B30001F280DD12349D4F80C02884208D194F8FB
:102B40001912012904D894F81A220AB1102A0DD9B1
:102B500094F8191220230522284600F0EFFD0220E8
:102B600060722846BDE87040FFF7B0BF04F21B2238
:102B7000284600F0F3FB00280DDA207A052804D05F
:102B80002846BDE87040FFF7A1BF2846BDE8704069
:102B9000012100F0A1B8217A022912D0012910D018
:102BA00003290ED0628932B104F10C012846BDE838
:102BB000704000F0AFB82846BDE87040002100F03A
:102BC0008BB870BD5553424310B5D0F81842627AA5
:102BD000022A09D011F0800F0BD0012A09D0BDE8DC
:102BE0001040012100F078B8812101F068FC00203C
:102BF000607210BD10B50446D4F81822117A02296B
:102C000009D0032901D0042914D12046BDE8104081
:102C1000002100F061B892F8191202F21B2220463E
:102C200000F09CFB002805DA2046BDE81040012199
:102C300000F052B810BD10B50446D4F81822117A2D
:102C4000002910D0012913D192F8191202F21B2287
:102C5000204600F083FB00280ADA2046BDE8104039
:102C6000012100F039B82046BDE81040FFF750BF01
:102C700010BDD0F8180200210172704770B50546EA
:102C8000D5F8184200202072607284F85D0284F842
:102C90005C02D5F81C020168002088470121284603
:102CA00001F03FFB8121284601F03BFB04F5037254
:102CB0002846BDE870401F23012101F08EBBD0F8EB
:102CC000181200220A7201224A721F2301F50372B0
:102CD000012101F082BB000070B50546D5F818420D
:102CE0000B48C4F82C0284F83812002020720D23FF
:102CF00004F50B728121284601F0FFFB04F50372F5
:102D00002846BDE870401F23012101F066BB00008A
:102D1000555342539446D0F81822D2F814326345E2
:102D200000D363469BB2D2F834C2ACEB030CC2F8BA
:102D300034C24FF0000C82F838C24FF0040C82F815
:102D400008C00A46812101F0D8BB0000F0B587B069
:102D50001F48816941F020018161816901F02001F2
:102D60000191816941F004018161816901F00401EF
:102D70000191816941F008018161806900F00800DA
:102D80000190052002900126039602240594114F1C
:102D900002A93846FDF7C2FE02940025039504956A
:102DA00002A93846FDF7BAFEE001029003950494AB
:102DB000094D02A92846FDF7B1FE210202910396B2
:102DC000059402A92846FDF7A9FE07B0F0BD000052
:102DD0000010024000080140000C01400548044971
:102DE00001600021416040F6FF718160FDF796BFF0
:102DF000003000404005002030B58FB013484FF040
:102E0000804101607D214160002484600125C5600E
:102E10000461FFF732FB28030A900AA90B48FFF769
:102E20008CFB0A48FFF77FFC0894099408A907481F
:102E3000FFF7F0FA602001900295039405940C22AC
:102E400001A90248FFF701FC0FB030BD500500207A
:102E500010B58EB01648154901604EF660214160EC
:102E6000002484603221C1604FF400710161FFF7DA
:102E700004FB4FF480500A900AA90D48FFF75DFB50
:102E80000B48FFF750FC0894099408A90848FFF77D
:102E9000C1FA6020019028200290039405940C222E
:102EA00001A90348FFF7D1FB0EB010BD000400409C
:102EB0008C05002010B500220849094801F070F97E
:102EC0000849074801F027FC0749054801F085FB40
:102ED000BDE81040024801F0D3BC0000AC00002067
:102EE0001C01002004000020E00000202DE9F04F2C
:102EF00083B004460021029101912068B0F844009B
:102F0000029010F4004F00F0C4814FF6FF790627BD
:102F10004FF002084FF48066BDF8080000F00F0A79
:102F2000BAF1000F34D0206830F82A100191BDF8B2
:102F3000041011F4004F00F02C8130F82A1021F019
:102F4000700121F4704120F82A1004EB4A1000F5BA
:102F50000275A87A00287AD02978206830F82120D4
:102F600012F4804F00F0E180B0F8502008EBC1016E
:102F7000114406EB4101415AC1F3090BBBF1000FAB
:102F800000F0E580EA885B46696902F062F9DEE0FC
:102F9000BDF8080010F0100F27D004F50275206866
:102FA00001880191BDF8041011F4006F50D0B0F801
:102FB00050102A7807EBC202114406EB4101405A37
:102FC000C0F30903EB61AA8804F57B71206802F065
:102FD00040F92068018821F0700121F470410180DE
:102FE0002046FEF71EFA00F04CB92068018821F057
:102FF000F00121F4E041018004F128052068B0F8D7
:1030000050102A7808EBC202114406EB4101405AE5
:10301000C0F30900E861696908446861002120463D
:10302000FDF783FF94F82400002800F02A81A869A6
:10303000002840F0268194F82400216840F08000A8
:10304000A1F84C00002084F8240000F01AB957E0E1
:10305000BDF8041011F4004F00F01381018821F035
:10306000700121F4704101802068B0F850102A7876
:1030700007EBC202114406EB4101405AC0F30900BC
:10308000E86148B183B2AA886969206802F0E1F872
:10309000E96968690844686100212046FDF74CFF32
:1030A0002068B0F85010891D06EB410142182869CC
:1030B0003E280CD9C0F34F1110F01F0F01D1481E4C
:1030C00081B209EA812040F40040106009E0C0F3B9
:1030D0004F0110F0010F01D0481C81B209EA812094
:1030E00010602068018821F0700121F4804181F492
:1030F000805181F4005148F2800211430180C0E008
:103100002068B0F850102A7807EBC202114406EB91
:103110004101415AC1F3090BBBF1000F24D0AA8829
:103120005B46696902F095F81EE0B0F8502007EBA5
:10313000C101114406EB4101415AC1F3090BBBF136
:10314000000F04D02A895B46696902F082F8297869
:10315000206830F8212022F0700323F4E04348F285
:10316000C0021A4320F82120E8695844E8616869E0
:1031700000EB0B026A61AB6913B12869584504D9A9
:1031800029782046FDF7D8FE03E029782046FDF790
:103190007EFFBDF8040010F0800F72D004EB4A10DF
:1031A00000F12805206830F82A1021F0F00121F400
:1031B000E04120F82A10A87AC8B12978206830F8B0
:1031C000212012F0400F27D0B0F8502008EBC101A9
:1031D000114406EB4101405AC0F30900E86168B3AD
:1031E00083B2EA886969206802F057F826E020680F
:1031F000B0F850102A7808EBC202114406EB4101E6
:10320000405AC0F30900E86128B383B2AA8869690B
:10321000206802F042F81EE0B0F8502007EBC10130
:10322000114406EB4101405AC0F30900E86128B19E
:1032300083B22A896969206802F02FF8297820680A
:1032400030F8212022F0700323F4E0434CF2800296
:103250001A4320F821202068B0F850102A7808EB93
:10326000C202114406EB4101405AC0F30900E86173
:1032700069690A186A61AB697BB129782046FDF754
:103280005AFF2068B0F84400029010F4004F7FF419
:1032900043AE03B00020BDE8F08F29782046FDF74B
:1032A00044FEEEE700B5D0F818C21A44DCF86032EC
:1032B0009A4206D92123052200F040FA4FF0FF3050
:1032C00000BD002000BD0000D0F8183292F801C007
:1032D0001CF0010F02D00E4907200CE0D0F81C02B0
:1032E00001EBC101C06900EB81010879401D127931
:1032F000824200D81046588140B1401E80B203EB94
:10330000000C0A5C8CF80C200028F6D100207047D5
:10331000D05A00080821D0F818024181054A491EF8
:1033200089B200EB010C535C8CF80C300029F6D10B
:1033300000207047DF5A0008D0F818120820488192
:10334000054A401E80B201EB000C135C8CF80C3077
:103350000028F6D170470000D75A000810B513783E
:10336000232B3DD00DDC1A2B32D005DCE3B1032B2F
:103370001ED0122B11D11FE01B2B21D01E2B0CD1E4
:1033800022E02A2B38D004DC252B2DD0282B04D189
:103390002EE02F2B34D05A2B1ED02023052200F0F4
:1033A000CDF94FF0FF3010BDBDE8104000F0E7B997
:1033B000BDE8104000F08EB9BDE81040FFF784BFB3
:1033C000BDE8104000F0D5B9BDE8104000F0D1B91B
:1033D000BDE81040FFF7B0BFBDE81040FFF79ABF4F
:1033E000BDE8104000F03EB9BDE8104000F00DB956
:1033F000BDE8104000F09CB8BDE8104000F002BAF3
:10340000BDE8104000F0E1B92DE9F04106460F4655
:10341000D6F81842D4F86852B5F5007F01D34FF4BE
:103420000075B4F85E02B5FBF0F18BB2D4F864120B
:10343000B1FBF0F2D6F81C0204F10C01D0F810C078
:103440003846E047002809DA11230422394630467D
:1034500000F074F94FF0FF30BDE8F081ABB204F139
:103460000C028121304601F048F8D4F86402284467
:10347000C4F86402D4F86802401BC4F86802D4F8A7
:103480003412491BC4F8341208B9032020720020FA
:10349000BDE8F0812DE9F04106460F46D6F8184206
:1034A000D4F86852B5F5007F01D34FF40075B4F835
:1034B0005E02B5FBF0F18BB2D4F86412B1FBF0F20E
:1034C000D6F81C0204F10C01D0F814C03846E047CD
:1034D000002809DA032304223946304600F02EF989
:1034E0004FF0FF30BDE8F081D4F864022844C4F8FE
:1034F0006402D4F86802401BC4F86802D4F834129D
:10350000491BC4F8341270B1B0F5007F01D34FF4F9
:10351000007083B204F10C020121304600F05DFF1F
:103520000020BDE8F08100213046FFF7D5FBF7E72A
:103530002DE9F04106460F461546D6F81842207A86
:10354000002859D194F8180210F0800F0FD0D6F847
:103550001C02816838468847A0B13A2302223946C6
:10356000304600F0EBF84FF0FF30BDE8F08194F802
:10357000191220230522304600F0E0F84FF0FF300A
:10358000BDE8F0816879A9782A7940EA0160E97894
:10359000090441EA022140EA0102C4F86422287ABF
:1035A000E97940EA0123C4F8683239463046FFF72A
:1035B00079FE002803DA4FF0FF30BDE8F0810220E9
:1035C0002072B4F85E02D4F864124143C4F8641265
:1035D000D4F868124843C4F86802D4F8141281423F
:1035E0000AD094F8191220230522304600F0A6F8DC
:1035F0004FF0FF30BDE8F0814FF400706081394634
:103600003046BDE8F041FFF7FFBE70B505460E46F7
:10361000D5F81842D5F81C0204F25E22911C4368CA
:103620003046984740B13A2302223146284600F0FE
:1036300085F84FF0FF3070BDD4F86002401E010ED7
:103640002173010C6173010AA173E07300202074DF
:103650006074B4F85E02010AA174E074082060810D
:10366000002070BDF0B583B006460F46D6F818426C
:103670000020002521180D73401C80B20C28F9D3BE
:10368000D6F81C0202AA01A943683846984748B1F7
:103690003A2302223946304600F050F803B04FF08A
:1036A000FF30F0BD0820E0730198401E010E217428
:1036B000010C6174010AA174E07402202075657523
:1036C000BDF80800010AA175E0750C20608103B007
:1036D0000020F0BD10B4D0F818020021002300EB48
:1036E000010C8CF80C30491CC9B21229F7D3702197
:1036F00001730C21C17490F85C1290F85DC26145B1
:1037000013D000EBC10C9CF83C4284739CF84142FE
:1037100004769CF840C280F819C0491CC9B280F8F0
:103720005C12042901D180F85C32122141811179A7
:10373000122900D8418110BC00207047D0F818022F
:1037400090F85D1200EBC10181F83C2290F85D22F7
:10375000190200EBC202C2F8401290F85D12491C37
:10376000C9B280F85D12042902D1002180F85D12EF
:103770007047D0F81802002141810020704770B5D1
:1037800005460E46D5F81842D4F81402002809D090
:1037900094F81912202305222846FFF7CFFF4FF097
:1037A000FF3070BDD5F81C0282683046904748B1A2
:1037B0003A23022231462846FFF7C0FF0520207237
:1037C000801F70BD0020608170BD10B5D0F8184218
:1037D000527812F0020F06D024230522FFF7AEFF25
:1037E0004FF0FF3010BDB4F8682293B2D4F86422D1
:1037F000FFF758FD002802DA4FF0FF3010BD00201F
:10380000608110BD2DE9F04106460F461546D6F8F9
:103810001842207A002805D039463046BDE8F041EC
:10382000FFF738BE94F8180210F0800F0AD094F811
:103830001912202305223046FFF780FF4FF0FF309A
:10384000BDE8F081D6F81C0281683846884748B147
:103850003A23022239463046FFF770FF4FF0FF301F
:10386000BDE8F081D6F81C02C2683846904748B1DE
:103870002723022239463046FFF760FF4FF0FF3022
:10388000BDE8F0816879A9782A7940EA0160E97891
:10389000090441EA022140EA0102C4F86422287ABC
:1038A000E97940EA0123C4F8683239463046FFF727
:1038B000F9FC002803DA4FF0FF30BDE8F081B4F8DE
:1038C0005E02D4F864124143C4F86412D4F868125A
:1038D0004843C4F86802D4F8141281420AD094F81C
:1038E0001912202305223046FFF728FF4FF0FF3042
:1038F000BDE8F08101212172B0F5007F00D34802BC
:1039000083B204F10C020121304600F066FD002074
:10391000BDE8F08141F2301008604FF40070108073
:10392000002070470020704700207047002070473B
:103930000220704770B50D461446012B01D00220BD
:1039400070BD41F23010844201D9022070BD152CA7
:1039500005D3A4F11501284601F0B4FD16E04FF49B
:1039600000712846FCF75BFC3CB1601E112808D8AA
:10397000611E284601F078FD08E0284601F01CFD94
:1039800004E0132C02D1284601F026FD002070BD72
:10399000022070472DE9F0410024002001F0E0FFF3
:1039A00000BF00BF00250F4F4FF6FF76012001F04A
:1039B000D7FF00BF00BF002001F0D2FF06EA440499
:1039C00002213846FDF79CF9012801D144F0010499
:1039D00000BF00BF681CC5B2102DE7D32046BDE86C
:1039E000F08100000008014010B503460C4600209D
:1039F00001F0B6FF00BF00BF0022002C12D903F077
:103A0000010001F073FF00BF00BF012001F0A8FF1B
:103A100000BF00BF002001F0A3FF5B08501CC2B232
:103A2000A242ECD310BD10B5FDF7AAF9BDE81040D5
:103A3000FEF7ECBC30B595B009200A904FF4803009
:103A40000B9000240C9401211091022511951290E5
:103A50004FF4E01013900AA8FDF7E8FF0520059049
:103A600006950794680208900994022105A8FDF7BD
:103A7000E7FD1020009003946846FDF71DFDFDF75B
:103A80006FFF4FF47A71B0FBF1F0FEF7ABFC04204E
:103A9000FEF798FC00221146501EFDF7D3F915B031
:103AA00030BD00001A4B586800F00C00194A1A4942
:103AB00000280ED004280ED008280ED00A605868BE
:103AC000164AC0F30310105C0A6822FA00F008607E
:103AD00070470A60F3E70A60F1E7586800F4701075
:103AE0005A6802F480324FF0020C0CEB90403AB16D
:103AF0005A6812F4003F07D0094A50430860DEE7D5
:103B0000074A50430860DAE7024A50430860D6E7A4
:103B10000010024000127A00A8000020E75A0008B6
:103B200000093D000E48016841F001010160416853
:103B30000C4A11404160016821F4102121F080718C
:103B40000160016821F480210160416821F4FE01D7
:103B500041604FF41F0181600349C0030860704752
:103B6000001002400000FFF808ED00E030B40268E9
:103B7000DFF854C0154C164B604506D0B0F1804FAD
:103B800003D0A04201D0984203D122F070024D68C8
:103B90002A43604506D0B0F1804F03D0A04201D047
:103BA000984203D122F44072CB681A4302608A68BB
:103BB000C2620A688262604501D10969016301211C
:103BC000416130BC70470000002C014000040040FF
:103BD0000008004001238B40D0F820C02CEA0303EA
:103BE0000362036A02FA01F1194301627047D0F8D7
:103BF00008C02CF47F4C42EA0322114341EA0C0135
:103C000081607047826822F07002114341F0070121
:103C10008160704710B4026A22F001020262036AF6
:103C20004268D0F818C02CF0700C2CF0030C0C6813
:103C300044EA0C0C23F002038C6823430E4CA04290
:103C400006D123F00803CC6844EA030323F00403FD
:103C500009D122F4807222F400724C6944EA020213
:103C60008C6944EA02024260C0F818C049684163A6
:103C7000036210BC70470000002C014010B4026ABF
:103C800022F010020262036A4268D0F818C02CF4D5
:103C9000E04C2CF4407C0C684CEA042C23F020030C
:103CA0008C6843EA04130E4CA04206D123F0800333
:103CB000CC6843EA041323F0400309D122F4806264
:103CC00022F400624C6942EA84028C6942EA84026E
:103CD0004260C0F818C049688163036210BC704735
:103CE000002C014010B4026A22F480720262036A5E
:103CF0004268D0F81CC02CF0700C2CF0030C0C683F
:103D000044EA0C0C23F400738C6843EA04230E4C41
:103D1000A04206D123F40063CC6843EA042323F4D1
:103D2000806309D122F4805222F400524C6942EAA5
:103D300004128C6942EA04124260C0F81CC049684F
:103D4000C163036210BC7047002C014010B4026ACA
:103D500022F480520262036A4268D0F81CC02CF43C
:103D6000E04C2CF4407C0C684CEA042C23F4005307
:103D70008C6843EA0433A0F18044B4F5963404D14E
:103D800022F480424C6942EA84124260C0F81CC0AE
:103D900049680164036210BC7047036AD0F820C010
:103DA0002CF0010CC0F820C0D0F818C02CF0F00C9A
:103DB0004CEA021223F00A03194382610162704740
:103DC000036A23F010030362D0F818C0036A2CF4CE
:103DD000704C4CEA023223F0A00343EA01118261E5
:103DE0000162704710B5D0F8142252689047002045
:103DF00010BD10B5044694F8FC01022806D0032833
:103E000004D02046BDE8104000F021B848880128C1
:103E10000CD10020C4F80402D4F8140282682046B1
:103E200090472046BDE8104000F035B810BD10B5F1
:103E300013460A46002100F0D0FA002010BD10B54C
:103E400013460A46002100F058FB002010BD10B5B3
:103E500004468021204600F032FB2046BDE8104099
:103E6000002100F02CBB10B50521C0F8F41100238F
:103E70001A46194600F0B1FA002010BD10B5022311
:103E8000C0F8F4318261C26113460A46002100F095
:103E900034FB002010BD10B50421C0F8F41100233C
:103EA0001A46194600F029FB002010BD10B5002865
:103EB00006D00A46054906A000F051F9034810BD96
:103EC0000A46024902A000F04AF9F7E74003002041
:103ED0004D534320436F6E666967000012200880CF
:103EE00000487047CC00002010B5002806D00A46D4
:103EF000054906A000F033F9034810BD0A460249FF
:103F000002A000F02CF9F7E7400300204D534320B6
:103F1000496E746572666163650000000420088064
:103F200000487047C800002010B50A46024903A0A7
:103F300000F015F9004810BD40030020687474704B
:103F40003A2F2F656C6D6F742E78797A2F000000F0
:103F500010B5002806D00A46054906A000F0FFF873
:103F6000034810BD0A46024902A000F0F8F8F7E73E
:103F7000400300204261726F4C6F67676572205684
:103F80003300000010B5002806D00A46054906A0F7
:103F900000F0E5F8034810BD0A46024902A000F00F
:103FA000DEF8F7E74003002030303030303030307A
:103FB0003030314100000000CA88012A01D0FFF7EB
:103FC00046BF90F8FC21022A03D0032A08D0FFF74D
:103FD0003EBF00218160012200F10801FFF74EBFC2
:103FE0000122011DFFF74ABFF8B504460D46688857
:103FF000010A08296FD2DFE801F08D040C1F8D8DB6
:10400000606FD4F81012207C0A6869469047014618
:1040100071E0207C022638B1D4F81402C16A6846E7
:10402000884701464E7066E0D4F81402816A6846FB
:10403000884701464E705EE0C1B2062934D2DFE8FF
:1040400001F0030B131B232BD4F81012207C4A68B9
:104050006946904701464EE0D4F81012207C8A68E9
:1040600069469047014646E0D4F81012207CCA68A1
:104070006946904701463EE0D4F81012207C0A6958
:1040800069469047014636E0D4F81012207C4A6910
:104090006946904701462EE0D4F81012207C8A69C8
:1040A00069469047014626E0C1B2D4F814026A4638
:1040B000836B2046984701461DE0207C20B12946AD
:1040C0002046FFF7C4FEF8BDD4F81402416B6846E1
:1040D000884701460FE01DE0207C20B1294620469C
:1040E000FFF7B5FEF8BDD4F81402016B68468847A7
:1040F000014607204870BDF800000028F2D0EA8889
:10410000002AEFD0824200D9024600922046FFF7F3
:10411000B5FEF8BD29462046FFF799FEF8BD0021FF
:104120000278002A05D0491CC9B2401C0278002A36
:10413000F9D10846704790F8FC21022A03D0032ADF
:1041400001D0FFF784BE0121C160D0F8041209B18B
:104150000321C160022200F10C01FFF78FBE70B590
:1041600004460D461646002C19D02046FFF7D7FF0F
:10417000022101EB40003080287003210220697089
:10418000217800290BD0002214F8013B411CC9B250
:104190002B54481CC0B26A5421780029F4D170BD58
:1041A00010B5002810D0D0F8143213B10023C0F895
:1041B000143209B1C0F81012012180F8FC1102700C
:1041C00000F0BAF8002010BD022010BD10B5D0F8E4
:1041D0002002FCF7EEFE002010BD10B5D0F8200242
:1041E000FCF7C5FE002010BD70B50446134600293B
:1041F00009D0D4F814024269002A50D094F8FC0186
:1042000003284AD04BE004F11400D4F8F41100253F
:10421000022938D18268C1688A420DD9511A816059
:104220008AB219462046FFF70AFE00231A461946AD
:10423000204600F0D2F826E04068B0FBF1F201FB26
:1042400012029AB9884211D3D4F8F81188420DD2DB
:10425000002211462046FFF7F2FDC4F8F851002372
:104260001A461946204600F0B8F80CE0D4F81402BB
:10427000C16829B194F8FC01032801D12046884780
:104280002046FFF7F0FD94F80002012807D12046F0
:1042900000F04AFA84F8005201E0204690470020DE
:1042A00070BD10B5044608461146002808D0D4F861
:1042B00014128A6942B394F8FC11032925D027E02F
:1042C00004F58270D4F8F421032A21D1D0F80CC06F
:1042D000836863450BD9A3EB0C038360C0688342FA
:1042E00000D303469AB22046FFF7A1FD10E0D4F8B0
:1042F0001402016929B194F8FC01032801D1204678
:1043000088472046FFF7C7FD02E001462046904758
:10431000002010BD10B5D0F82002FCF715FE0020DB
:1043200010BD10B5D0F82002FCF769FE002010BDCA
:10433000D0F82002FCF77EBE10B504461848C0F83D
:104340001C44C4F820021749016008214160022181
:1043500081600321C16000218161C1610162FCF7BC
:10436000A6FF002218231146D4F82002FCF7C2FD54
:10437000582300228021D4F82002FCF7BBFD9823AB
:1043800000228121D4F82002FCF7B4FDD8230022BA
:104390000121D4F82002FCF7ADFD002010BD000083
:1043A00038080020005C004011F0800FD0F8200297
:1043B00001F07F0100EB411002D090F82A00704715
:1043C00090F80A02704710B59C461346D0F82002B8
:1043D0006246FCF737FE002010BD10B5D0F8200271
:1043E000FCF755FE002010BD70B5044600224023A6
:1043F00011462046FFF7E7FF4025C4F8105140233F
:10440000002280212046FFF7DEFF2562012084F88C
:10441000FC01D4F8180228B1D4F8140221794268BA
:1044200020469047002070BD90F8FD1180F8FC11E7
:104430000020704710B590F8FC11032904D1D0F882
:104440001412C96901B18847002010BD0174002011
:10445000704710B5D0F82002FCF7CFFF002010BD48
:1044600010B5044604F5027000F041F90120C4F8CB
:10447000F401B4F80E02C4F8F80194F8081211F02F
:104480001F000AD001280ED0022812D001F08001AE
:10449000204600F014F8002010BD04F502712046FB
:1044A00000F0F3F9F7E704F50271204600F0B0FAE6
:1044B000F1E704F50271204600F015FAEBE710B5BC
:1044C000D0F82002FCF709FE002010BD10B5D0F88E
:1044D0002002FCF7ADFF002010BD10B5D0F820027F
:1044E000FCF7BFFF002010BD90F8FC1180F8FD1113
:1044F000042180F8FC110020704710B5D0F820028C
:10450000FCF719FE002010BD10B5FEF773FB00206C
:1045100010BD10B5FEF78FFB002010BD10B504468E
:1045200001212046FFF759FE81212046FFF755FE65
:104530002046FEF79EFBD4F8180220B100F08AFA5C
:104540000020C4F81802002010BD00000A210180DC
:10455000004870479C0000202021018000487047DF
:104560005C00002020210180004870473C000020B2
:1045700020210180004870477C00002070B505466E
:104580000024287C002817D040230222012128463D
:10459000FFF719FF4023022281212846FFF713FF6E
:1045A0004FF41B7000F058FAC5F8180298B128466D
:1045B000FEF764FBE0B270BD4FF4007302220121EC
:1045C0002846FFF700FF4FF400730222812128469E
:1045D000FFF7F9FEE4E70124ECE7002901D0C0F879
:1045E0001C120020704770B505460C46D5F81862BD
:1045F000207810F0600136D020296ED16178FE2934
:1046000007D0FF291ED021462846FFF720FC0220B4
:1046100070BD618881B9E18801290DD110F0800F4A
:104620000AD0D5F81C0280698047306001223146EB
:104630002846FFF723FC50E021462846FFF707FCF9
:10464000022070BD618821B9E18811B910F0800F96
:1046500005D021462846FFF7FAFB022070BD284608
:10466000FEF72DFB39E0607801280DD00A2802D032
:104670000B2832D105E00122311D2846FFF7FEFB51
:104680002BE0A078706028E021792846FFF749FEEA
:1046900021792846FFF7A1FD207910F0800F10D076
:1046A000287C30B14023022281212846FFF78BFE6F
:1046B0000FE04FF40073022281212846FFF783FEAA
:1046C00007E0287C58B14023022201212846FFF749
:1046D0007AFE21792846FEF777FA002070BD4FF464
:1046E0000073022201212846FFF76DFEF1E70A78E8
:1046F00002704A7842708A78CB7802EB03224280BB
:104700000A794B7902EB032282808A79C97902EB1C
:104710000121C180704702460020002902D0C2F862
:1047200014127047022070470020704770B504468D
:104730008888002801D1C88820B12046BDE8704093
:10474000FFF785BB887800F07F0594F8FC0103280B
:104750000DD084F8FE5129462046FFF77AFE204608
:10476000FFF799FB45B1022084F8FC0170BD20469B
:10477000BDE87040FFF76BBB012084F8FC0170BD01
:1047800010B50224D0F81422002A03D012689047F2
:1047900000B90024204610BD70B504460D462E4ECB
:1047A000A9783170012905D929462046BDE8704015
:1047B000FFF74DBB94F8FC01022807D003281FD057
:1047C00029462046BDE87040FFF741BB99B16160C2
:1047D000032084F8FC012046FFF7D2FF022804D012
:1047E0002046BDE87040FFF756BB29462046BDE88D
:1047F0007040FFF72CBB2046BDE87040FFF74BBB75
:1048000091B16068884221D0C1B22046FFF7EAFA30
:10481000317861602046FFF7B3FF022810D02046B0
:10482000BDE87040FFF737BB022084F8FC016160EF
:104830002046FFF7D7FA2046BDE87040FFF72BBBB4
:1048400029462046BDE87040FFF701BB2046BDE881
:104850007040FFF720BB00000000002010B50446A8
:10486000488801280BD1C4F80402D4F814028268E5
:10487000204690472046BDE81040FFF70CBB10BD16
:1048800010B5FFF723FE002010BD10B5034600242D
:104890004A780A2A22D2DFE802F0151D21192109DF
:1048A0000521110D1846FFF79FFB1AE01846FFF788
:1048B0003DFF16E01846FFF76FFF12E01846FFF7BE
:1048C0007BFB0EE01846FFF736FC0AE01846FFF7C0
:1048D000C5FF06E01846FFF78CFA02E01846FFF71E
:1048E000B6FA204610BD70B504460D46002629795B
:1048F000287800F06000202807D06878002855D07C
:1049000001282FD003285BD107E0D4F814022946F0
:10491000826820469047002070BD94F8FC01022870
:1049200006D003280CD029462046FFF790FA47E02E
:10493000002945D0802943D02046FFF7C0FD3FE045
:10494000688828B921B1802902D02046FFF7B7FD39
:10495000D4F8140229468268204690472046FFF783
:104960009AFA2DE094F8FC01022806D003280BD017
:1049700029462046FFF76BFA22E009B380291FD0B1
:104980002046FFF79CFD1BE06888C8B911F07F0F37
:1049900008D02046FFF71AFCD4F814022946826892
:1049A000204690472046FFF776FA09E094F8FC018C
:1049B000022807D003280CD029462046FFF747FAE3
:1049C000304670BD11F07F0FFAD02046FFF777FD1B
:1049D000F6E711F0800F06D001F07F0004EB001025
:1049E00000F1140505E001F07F0004EB001000F574
:1049F00082752046FFF7D8FC10B10120286001E045
:104A000000202860022229462046FFF737FAD7E720
:104A100070B504460D4694F8FC01032805D02946DC
:104A20002046FFF714FA002070BD287901280CD821
:104A3000D4F814022946826820469047E888002866
:104A4000F1D12046FFF727FAEDE729462046FFF788
:104A5000FEF9E8E700F014BE00487047C8050020E2
:104A6000F0B4CB780A78002B06D0012B23D0022B90
:104A70000DD0032B29D113E030F8223023F4CE637C
:104A800023F4E04343F4007320F822301DE030F8B3
:104A9000223023F4CE6323F4E04320F8223014E0E4
:104AA00030F8223023F4CE6323F4E04343F4C063B0
:104AB00020F8223009E030F8223023F4CE6323F4CA
:104AC000E04343F4806320F822300A7830F8223043
:104AD00048F2800423F0700323F4E043234313439C
:104AE00020F822308A7A4FF0040C48F2C0034CF2CE
:104AF0008005002A68D00A7830F8226026F0700617
:104B000026F4E04646F48076264320F82260CA88E0
:104B1000B0F8506022F001020F7806EBC70600EBF8
:104B20004606C6F800240A89B0F8506022F0010257
:104B30000F780CEBC70CB44400EB4C0CCCF8002401
:104B40004A78002A7ED00A7830F822C01CF4804FC0
:104B500009D030F822C02CF0700C2CF4E04C4CEA58
:104B6000050C20F822C00A7830F822C01CF0400F53
:104B700009D030F822C02CF0700C2CF4E04C4CEA38
:104B8000030320F822300A7830F8223023F0700333
:104B900023F4E0432B4320F822300A7830F8223007
:104BA00023F4415323F48043234320F8223009782F
:104BB00030F8212022F0700222F48042224320F8B3
:104BC0002120F0BC002070474A7842B38A88B0F8B0
:104BD00050C022F001020D780CEBC50C00EB4C0C20
:104BE000CCF800240A7830F822C01CF0400F09D01D
:104BF00030F822C02CF0700C2CF4E04C4CEA03038B
:104C000020F82230097830F8212022F4415222F491
:104C1000804282F02002224320F82120D1E78A88B6
:104C2000B0F8503022F001020E780CEBC60C634451
:104C300000EB4303C3F80024B0F850200B784FF08A
:104C4000060C00E042E00CEBC3031A4400EB420206
:104C500002F5806C0A694FF6FF763E2A0DD9C2F341
:104C60004F1312F01F0F01D15A1E93B206EA83228E
:104C700042F40042CCF800200AE0C2F34F0312F0E5
:104C8000010F01D05A1C93B206EA8322CCF800200F
:104C90000A7830F8223013F4804F08D030F82230F0
:104CA00023F0700323F4E0432B4320F822300978EB
:104CB00030F8212022F0700222F4804282F48052E7
:104CC00082F40052224320F821207AE70A7830F853
:104CD00022C01CF4804F09D030F822C02CF0700C98
:104CE0002CF4E04C4CEA050C20F822C00A7830F88D
:104CF00022C01CF0400F09D030F822C02CF0700CFC
:104D00002CF4E04C4CEA030C20F822C00A7830F86E
:104D100022C02CF0700C2CF4E04C4CEA030320F879
:104D200022300A7830F8223023F0700323F48043D5
:104D300083F4805383F40053234320F8223009780E
:104D400030F8212022F4415222F48042224320F8FC
:104D5000212036E70020704770B48E7A4B780A78AD
:104D600048F2800C48F2C0044CF28005002E41D07D
:104D7000002B75D030F8223013F4804F08D030F873
:104D8000223023F0700323F4E0432B4320F8223039
:104D90000A7830F8223013F0400F08D030F8223073
:104DA00023F0700323F4E043234320F822300A78F1
:104DB00030F8223023F0700323F4E0432B4320F833
:104DC00022300A7830F8223023F4415323F4804310
:104DD00043EA0C0320F82230097830F8212022F031
:104DE000700222F4804242EA0C0220F8212070BCBA
:104DF00000207047CBB130F8223013F0400F08D0BC
:104E000030F8223023F0700323F4E043234320F8EA
:104E10002230097830F8212022F4415222F48042D5
:104E200042EA0C0220F82120E1E730F8223013F4A6
:104E3000804F08D030F8223023F0700323F4E04391
:104E40002B4320F82230097830F8212022F070021C
:104E500022F4804242EA0C0220F82120C7E7FFE753
:104E600030F8223013F4804F08D030F8223023F08D
:104E7000700323F4E0432B4320F822300A7830F803
:104E8000223013F0400F08D030F8223023F07003A6
:104E900023F4E043234320F822300A7830F822300C
:104EA00023F0700323F4E043234320F822300A78F0
:104EB00030F8223023F0700323F4804343EA0C03DC
:104EC00020F82230097830F8212022F4415222F4CF
:104ED000804242EA0C0220F8212088E70020704737
:104EE000002070470121A0F840100021A0F84010D8
:104EF000A0F84410A0F8501000207047B0F84010FF
:104F000021F43D41A0F84010002070470020704778
:104F100010B491F801C00A7848F28003BCF1000F88
:104F20001FD030F822C01CF0400F0BD030F822C048
:104F300048F2C0042CF0700C2CF4E04C4CEA040C49
:104F400020F822C0097830F8212022F4415222F4BE
:104F5000804282F0100282F020021A4320F82120C1
:104F60001EE030F822C01CF4804F0BD030F822C075
:104F70004CF280042CF0700C2CF4E04C4CEA040C45
:104F800020F822C0097830F8212022F0700222F4A3
:104F9000804282F4805282F400521A4320F8212089
:104FA00010BC002070470A7848F28003002A0DD018
:104FB0004978B9B130F8221021F4415121F48041EF
:104FC00081F01001194320F8221016E0018821F029
:104FD000400121F4804181F4805181F01001194396
:104FE00001800AE030F8221021F0700121F48041A4
:104FF00081F48051194320F82210002070472DE9D8
:10500000F04306460D46A9690C4695F801C00023F9
:10501000AA7A0227286948F28008BCF1010F05D05E
:1050200081426AD90446081BA86167E0814203D91E
:105030000446081BA86100E0AB6182B1287836F80D
:10504000201011F0400F1BD0B6F8501007EBC00035
:10505000084406EB4000C0F800442A891AE0A3B2D5
:10506000AA883046696900F018F9B6F85000297826
:1050700007EBC101084406EB4000C0F800442CE0F7
:10508000B6F8501007EBC000084406EB4000C0F82B
:105090000044EA88A3B23046696900F0FEF86878F7
:1050A00010B101280DD018E0287836F8201048F209
:1050B000C00221F0700121F4E041114326F82010D4
:1050C0000BE0287836F820104CF2800221F07001B5
:1050D00021F4E041114326F82010287836F82010FA
:1050E00021F4415121F4804181F0100181F020012F
:1050F00041EA080126F8201092E0AB614FF0060962
:105100004FF6FF731AB1BCF1000F24D046E0B6F899
:105110005000297809EBC101084406EB400000F576
:1051200080613E2C0CD9C4F34F1014F01F0F01D135
:10513000401E80B203EA802040F40040086060E036
:10514000C4F34F0014F0010F01D0401C80B203EAF9
:105150008020086055E0B6F85000297807EBC101BF
:10516000084406EB400000F580613E2C0CD9C4F3E6
:105170004F1014F01F0F01D1401E80B203EA8020AF
:1051800040F40040086009E0C4F34F0014F0010F40
:1051900001D0401C80B203EA80200860687810B11A
:1051A000012824D02DE0B6F85000297809EBC10180
:1051B000084406EB400000F580613E2C0CD9C4F396
:1051C0004F1014F01F0F01D1401E80B203EA80205F
:1051D00040F40040086014E0C4F34F0014F0010FE5
:1051E00001D0401C80B203EA8020086009E0B6F8D4
:1051F0005000297807EBC101084406EB4000C0F8D5
:105200000044287836F8201021F0700121F4804104
:1052100081F4805181F4005141EA080126F8201000
:105220000020BDE8F083B0F8401041F43D41A0F803
:105230004010002070470020704700207047000099
:105240000148FBF79DBF000038080020B0F844007B
:1052500070475B1C5B0800EB420000F58060002B90
:1052600006D030F8042B0A80891C5B1E002BF8D175
:10527000704700207047002902D18021A0F84C100F
:10528000002070470121A0F840100021A0F8441030
:105290000321A0F84010002070475B1C5B0800EB66
:1052A000420000F58060002B0BD00A78491C91F871
:1052B00000C042EA0C220280001D491C5B1E002B2C
:1052C000F3D17047FDF763FA02E008C8121F08C166
:1052D000002AFAD170477047002001E001C1121F77
:1052E000002AFBD1704700002DE9F0414FF4807196
:1052F0002A48FBF705FD2A4D012804D04FF0FF3066
:105300002860BDE8F0812868B0F1FF3F1ED0FBF7B0
:10531000FFFC29688842F4D9032000F0EDFA00F080
:105320006BFBFBF7E7FB1F4C1F4E204F2046FBF7A4
:105330005FFB4CF25030FBF793FB316921F0020127
:10534000316150B1042000F0D7FAFEE7FBF7E0FC32
:1053500000F5FA602860BDE8F08104F58064BC4285
:10536000E4D3FBF7D5FC296841F288342144884214
:1053700006D230BFFBF7CCFC296821448842F8D321
:10538000BFF34F8F0A4801680A4A01F4E0611143F4
:105390000160BFF34F8F00BFFDE70000000C01402C
:1053A00010010020008000080020024000000208D8
:1053B0000CED00E00400FA0510B504466022054932
:1053C0002046FAF713FF552084F8FE01AA2084F83E
:1053D000FF0110BD1B5B000870B504465B221E492F
:1053E0002046FAF703FF1D480268C2F50040DFF8C7
:1053F00070C001460023CCFB00314B11DFF864C0C4
:10540000A3EBE1718CFB01539D10A5EBE3735B42B1
:1054100003EB830301EB4301303184F827104FF491
:10542000167190FBF1F18CFB01C34FEAA30CACEBBE
:10543000E3735B4203EB830301EB4301303184F8F8
:10544000261041F2707190FBF1F0303084F82500A5
:105450005001E06570BD00007B5B00080401002086
:10546000898888886766666630B4154A1268520172
:1054700002F2FF12D31702EBD352032303EB622491
:10548000012202EB012300224FF6FF75A34202D155
:1054900020F812500AE009DC9C4603F1010320F8D1
:1054A00012C002F10102B2F5807FEFDB002905D1C5
:1054B0004FF6F871018045800021818030BC704733
:1054C000040100202DE9F34F83B0814604980028A1
:1054D00004D120224BA14846FAF788FE0498060121
:1054E000514A106886427ADA4FF0010801250120FE
:1054F0004E49012E08DD00EB4003CB5C7F2B72D0C0
:105500006D1C401CB042F6DB00274748006886420D
:1055100065DA049838435ED04FEA471A434906EBF0
:1055200046000A5C7F2A62D008440188ADF8081062
:1055300080788DF80A00BDF809B048F689000BFBA9
:1055400000F0400D019009EB0A0404224146204678
:1055500000F036FA0920207129466D1C601D0522D5
:1055600000F02EFA0920A0729DF9081004F10B003A
:10557000042200F015F90920E07304F11000042260
:10558000019900F01DFA2E2020752949A1FB0B205E
:105590004009A0EB00100BEB800064225043002276
:1055A000C1FB00204111A1EBE07104F115000222C2
:1055B00000F006FA0920E075019800F083F9014631
:1055C00004F11800062200F0EBF809EB0A000D21A7
:1055D00081770A21C1777F1C761C102F95DB05B0DF
:1055E000BDE8F08FFFE708F10108012589E708F120
:1055F0000108012509EB0A002A221E21FAF708FEFC
:10560000E3E700005320202020094E2020200954E9
:105610002C204309502C206D42617209416C742C7E
:10562000206D0D0A00000000040100200080000829
:105630008988888810B4104B00205860DFF83CC07F
:105640004FF6FF72586800EB400101EB0C04B4F810
:105650000140944204D11CF90110B1F1FF3F07D081
:10566000801C5860B0F5004FECDB10BC0020704788
:1056700010BC0120704700000001002000800008DD
:1056800010B5002821D0114B0022001F196803E03B
:10569000814203D80A4649680029F9D152B11368FA
:1056A000841A9C4204D1006818441060104602E03D
:1056B000506000E0186039B102680B1A934203D1C0
:1056C0000B681A4402604968416010BD180100204F
:1056D00010B508212F20FEF787F904210020FEF7DE
:1056E00083F900F099F9FEF755F9044601210020ED
:1056F000FEF77AF9204610BD10B508214F20FEF7BD
:1057000073F904210020FEF76FF900F085F9FEF728
:1057100041F9044601210020FEF766F9204610BD3C
:1057200010B50146012806D0022910D003291AD04D
:1057300004292FD123E008215720FEF755F9052130
:105740000120FEF751F9FEF725F9044622E0082171
:10575000D720FEF749F905210020FEF745F9FEF7AD
:1057600019F9044616E008213720FEF73DF9052116
:105770000120FEF739F9FEF70DF904460AE0082189
:10578000B720FEF731F905210020FEF72DF9FEF7CD
:1057900001F9044601210020FEF726F9204610BD3C
:1057A000002903DA49422D23037001E02B23037003
:1057B000521E401C00F004B99CB0FBF7E9FAFEF75A
:1057C00039F9FDF7C3FAFDF709FBFDF715FBFDF706
:1057D0003FFBFDF76FFBFFF72DFFFBF7C3F8364DDF
:1057E00040F6B83601E0FFF77FFD95F8FC0102288E
:1057F00003D0FBF78DFAB042F5D395F8FC010228EF
:1058000041D000F0B3F82D4800F012F9FDF736F959
:10581000FBF77EFA054610AE04AFDFF8A480FBF775
:1058200077FAA84204D830BFFBF772FAA842FAD937
:10583000FBF76EFA00F57A75FFF756FD002407EBCB
:10584000840106EB8400FCF7A7FF641C0C2CF6DB3C
:1058500003AA0C2110A8FAF765FC02AA0C2104A8DF
:10586000FAF760FC0398FAF75AFF8DF804004146F6
:105870000298FAF737FDFAF76BFFADF8050001A8BB
:1058800000F0D6F8CBE7012000F036F8FFF72CFD4A
:1058900095F8FC01042801D00024F7E73CB1FBF7A0
:1058A00037FA001BB042F1D9FBF712FBEEE7FBF72A
:1058B0002FFA0446EAE700001C010020D65B00082E
:1058C00000007042062802DA49F63F40704740F275
:1058D0000D41884201DD034870470349801F51F89C
:1058E0002000704718FCFFFFDC5B000801490860DE
:1058F0007047000088012142184A322300281168AD
:1059000010D04FF0C80C012812D0022817D003285D
:105910001DD0CB62D3601168332008641168002069
:1059200048627047CB62D36011680A200864F5E7CB
:10593000C1F82CC0C2F80CC010680364EEE7C1F8CF
:105940002CC0C2F80CC0116802200864E6E73C20B5
:10595000C862D06010680364E0E700008C05002096
:1059600001490860704700008001214210B500F035
:1059700043F81148416821F0030141F00101416001
:10598000416821F0030141F001014160FBF7E8FFAC
:105990004FF47A71B0FBF1F0FCF724FDFEF782F8CA
:1059A0000648FCF7BDFD0C210448FCF7D9FEBDE814
:1059B00010400220FFF7A0BF001002405005002059
:1059C00010B4521E002A12DB0A4C84FB01C34FEABA
:1059D000A30CACEBE373C3F1000C0CEB8C0C01EBF0
:1059E0004C01303181541946521E002AEDDA10BCA8
:1059F000704700006766666610B5054901200860BB
:105A00000448FEF76AFDBDE810400248FEF782BC7C
:105A1000A48121421C01002010B5044C0221204623
:105A2000FBF76EF90028F9D110BD00000008014015
:105A30002DE9F047224F7968B1F5004F02DB0020D5
:105A4000BDE8F08739781F4B4A1CD2B201EB410107
:105A50003A70194403880B8080788870022A02D239
:105A60000120BDE8F0874FF0000987F80090FBF7B0
:105A700041F8DFF85480D8F8100040F00100C8F871
:105A800010007868114900EB400046180D4D0024C5
:105A900035F8140026F814004FF0FF30FAF7E0FF55
:105AA000641C032CF4D3D8F81000C8F81090FBF74E
:105AB00017F87868801C78600120BDE8F087000046
:105AC00000010020080100200020024000800008A2
:105AD00000000003008083000000000000000000C0
